:020000040800F2
:100000000004002091110008B1120008B11200088C
:10001000B1120008B1120008B1120008B1120008B4
:10002000B1120008B1120008B1120008E112000874
:10003000B1120008B1120008B1120008B113000893
:10004000B1120008B12F0008B1120008B112000867
:10005000B1120008B1120008D12D0008012E0008CD
:10006000312E0008612E0008912E0008E1260008BC
:10007000112700084127000871270008A127000860
:10008000D127000801280008B1120008B1120008A9
:10009000B1120008B1120008B1120008C12E000808
:1000A000B1120008013B0008B1120008B1120008AB
:1000B000213B0008B1120008B161000811340008AA
:1000C00031350008B1120008B1120008B112000861
:1000D000B1120008213E0008413E0008613E0008C0
:1000E000312F0008E12F000811300008B11200087C
:1000F000B1120008B1120008B1120008B1120008D4
:10010000B1120008B1120008413B0008B11200080A
:10011000B1120008B1120008B1120008B1120008B3
:10012000312800086128000891280008C12800082B
:1001300010B502F09DF8332401F0CAF904F088FEEE
:1001400004F00EFE05E0013C6420A4B201F0F0FBD7
:100150001CB106F0E5F80028F5D0002404F078FA88
:100160003CB1237F0E2B0CD0322001F0E1FB002CA0
:10017000F7D106484FF40B61402204F071FA0446AF
:10018000F2E7204601F044FC0024EDE7C09D0008A2
:1001900081F0004102E000BF83F0004330B54FEA38
:1001A00041044FEA430594EA050F08BF90EA020FA5
:1001B0001FBF54EA000C55EA020C7FEA645C7FEA38
:1001C000655C00F0E2804FEA5454D4EB5555B8BF5B
:1001D0006D420CDD2C4480EA020281EA030382EACC
:1001E000000083EA010180EA020281EA0303362D5E
:1001F00088BF30BD11F0004F4FEA01314FF4801C31
:100200004CEA113102D0404261EB410113F0004F42
:100210004FEA03334CEA133302D0524263EB4303F9
:1002200094EA050F00F0A780A4F10104D5F1200E97
:100230000DDB02FA0EFC22FA05F2801841F10001F2
:1002400003FA0EF2801843FA05F359410EE0A5F1C6
:1002500020050EF1200E012A03FA0EFC28BF4CF0F7
:10026000020C43FA05F3C01851EBE37101F00045AD
:1002700007D54FF0000EDCF1000C7EEB00006EEBBA
:100280000101B1F5801F1BD3B1F5001F0CD3490844
:100290005FEA30004FEA3C0C04F101044FEA44529B
:1002A00012F5800F80F09A80BCF1004F08BF5FEA22
:1002B000500C50F1000041EB045141EA050130BD02
:1002C0005FEA4C0C404141EB010111F4801FA4F1A5
:1002D0000104E9D191F0000F04BF01460020B1FAFA
:1002E00081F308BF2033A3F10B03B3F120020CDA32
:1002F0000C3208DD02F1140CC2F10C0201FA0CF010
:1003000021FA02F10CE002F11402D8BFC2F1200C74
:1003100001FA02F120FA0CFCDCBF41EA0C0190402A
:10032000E41AA2BF01EB0451294330BD6FEA040473
:100330001F3C1CDA0C340EDC04F11404C4F120025E
:1003400020FA04F001FA02F340EA030021FA04F370
:1003500045EA030130BDC4F10C04C4F1200220FAC7
:1003600002F001FA04F340EA0300294630BD21FA05
:1003700004F0294630BD94F0000F83F4801306BFCB
:1003800081F480110134013D4EE77FEA645C18BFBF
:100390007FEA655C29D094EA050F08BF90EA020F56
:1003A00005D054EA000C04BF1946104630BD91EA4E
:1003B000030F1EBF0021002030BD5FEA545C05D151
:1003C0004000494128BF41F0004130BD14F5800490
:1003D0003CBF01F5801130BD01F0004545F0FE4104
:1003E00041F470014FF0000030BD7FEA645C1ABF39
:1003F000194610467FEA655C1CBF0B46024650EA70
:10040000013406BF52EA033591EA030F41F400219B
:1004100030BD00BF90F0000F04BF0021704730B521
:100420004FF4806404F132044FF000054FF00001F6
:1004300050E700BF90F0000F04BF0021704730B5B7
:100440004FF4806404F1320410F0004548BF40428C
:100450004FF000013EE700BF42004FEAE2014FEAE1
:1004600031014FEA02701FBF12F07F4393F07F4FBC
:1004700081F06051704792F0000F14BF93F07F4FEE
:10048000704730B54FF4607401F0004521F0004131
:1004900020E700BF50EA010208BF704730B54FF0B7
:1004A00000050AE050EA010208BF704730B511F0BC
:1004B000004502D5404261EB41014FF4806404F1F4
:1004C00032045FEA915C3FF4DCAE4FF003025FEA76
:1004D000DC0C18BF03325FEADC0C18BF033202EBFE
:1004E000DC02C2F1200300FA03FC20FA02F001FA58
:1004F00003FE40EA0E0021FA02F11444C1E600BFF7
:1005000070B54FF0FF0C4CF4E06C1CEA11541DBFA9
:100510001CEA135594EA0C0F95EA0C0F00F0DEF874
:100520002C4481EA030621EA4C5123EA4C5350EA59
:10053000013518BF52EA033541F4801143F48013AA
:1005400038D0A0FB02CE4FF00005E1FB02E506F03B
:100550000042E0FB03E54FF00006E1FB03569CF090
:10056000000F18BF4EF0010EA4F1FF04B6F5007F96
:1005700064F5407404D25FEA4E0E6D4146EB060608
:1005800042EAC62141EA55514FEAC52040EA5E5091
:100590004FEACE2EB4F1FD0C88BFBCF5E06F1ED83B
:1005A000BEF1004F08BF5FEA500E50F1000041EB72
:1005B000045170BD06F0004646EA010140EA02001F
:1005C00081EA0301B4EB5C04C2BFD4EB0C0541EA41
:1005D000045170BD41F480114FF0000E013C00F356
:1005E000AB8014F1360FDEBF002001F0004170BD7A
:1005F000C4F10004203C35DA0C341BDC04F1140493
:10060000C4F1200500FA05F320FA04F001FA05F21E
:1006100040EA020001F0004221F0004110EBD370EB
:1006200021FA04F642EB06015EEA430E08BF20EA17
:10063000D37070BDC4F10C04C4F1200500FA04F3BA
:1006400020FA05F001FA04F240EA020001F000414C
:1006500010EBD37041F100015EEA430E08BF20EABF
:10066000D37070BDC4F1200500FA05F24EEA020E07
:1006700020FA04F301FA05F243EA020321FA04F036
:1006800001F0004121FA04F220EA020000EBD370ED
:100690005EEA430E08BF20EAD37070BD94F0000FED
:1006A0000FD101F00046400041EB010111F4801F21
:1006B00008BF013CF7D041EA060195F0000F18BFD2
:1006C000704703F00046520043EB030313F4801F0E
:1006D00008BF013DF7D043EA0603704794EA0C0FC8
:1006E0000CEA135518BF95EA0C0F0CD050EA4106DE
:1006F00018BF52EA4306D1D181EA030101F000415B
:100700004FF0000070BD50EA410606BF1046194682
:1007100052EA430619D094EA0C0F02D150EA01368E
:1007200013D195EA0C0F05D152EA03361CBF1046CF
:1007300019460AD181EA030101F0004141F0FE416E
:1007400041F470014FF0000070BD41F0FE4141F4F2
:10075000780170BD70B54FF0FF0C4CF4E06C1CEAF2
:1007600011541DBF1CEA135594EA0C0F95EA0C0FA7
:1007700000F0A7F8A4EB050481EA030E52EA033562
:100780004FEA013100F088804FEA03334FF0805583
:1007900045EA131343EA12634FEA022245EA1115B0
:1007A00045EA10654FEA00260EF000419D4208BF61
:1007B000964244F1FD0404F5407402D25B084FEA0E
:1007C0003202B61A65EB03055B084FEA32024FF4BA
:1007D00080104FF4002CB6EB020E75EB030E22BF17
:1007E000B61A754640EA0C005B084FEA3202B6EBD7
:1007F000020E75EB030E22BFB61A754640EA5C0086
:100800005B084FEA3202B6EB020E75EB030E22BF15
:10081000B61A754640EA9C005B084FEA3202B6EB16
:10082000020E75EB030E22BFB61A754640EADC00D5
:1008300055EA060E18D04FEA051545EA16754FEA37
:1008400006164FEAC30343EA52734FEAC2025FEA55
:100850001C1CC0D111F4801F0BD141EA00014FF0E4
:1008600000004FF0004CB6E711F4801F04BF0143B5
:100870000020B4F1FD0C88BFBCF5E06F3FF6AFAED1
:10088000B5EB030C04BFB6EB020C5FEA500C50F161
:10089000000041EB045170BD0EF0004E4EEA1131E4
:1008A00014EB5C04C2BFD4EB0C0541EA045170BDEB
:1008B00041F480114FF0000E013C90E645EA060E2F
:1008C0008DE60CEA135594EA0C0F08BF95EA0C0F5D
:1008D0003FF43BAF94EA0C0F0AD150EA01347FF4A5
:1008E00034AF95EA0C0F7FF425AF104619462CE77C
:1008F00095EA0C0F06D152EA03353FF4FDAE1046DF
:10090000194622E750EA410618BF52EA43067FF42F
:10091000C5AE50EA41047FF40DAF52EA43057FF4BF
:10092000EBAE12E700000000000000000000000035
:100930004FF0FF3C06E000BF4FF0010C02E000BFAB
:100940004FF0010C4DF804CD4FEA410C7FEA6C5C8E
:100950004FEA430C18BF7FEA6C5C1BD001B050EA31
:10096000410C0CBF52EA430C91EA030F02BF90EA1C
:10097000020F0020704710F1000F91EA030F58BFDB
:10098000994208BF90422CBFD8176FEAE37040F03D
:10099000010070474FEA410C7FEA6C5C02D150EADB
:1009A000013C07D14FEA430C7FEA6C5CD6D152EA96
:1009B000033CD3D05DF8040B704700BF844610465B
:1009C00062468C461946634600E000BF01B5FFF75A
:1009D000B7FF002848BF10F1000F01BD4DF808ED2A
:1009E000FFF7F4FF0CBF012000205DF808FB00BFFB
:1009F0004DF808EDFFF7EAFF34BF012000205DF855
:100A000008FB00BF4DF808EDFFF7E0FF94BF0120A1
:100A100000205DF808FB00BF4DF808EDFFF7CEFFA2
:100A200094BF012000205DF808FB00BF4DF808EDE1
:100A3000FFF7C4FF34BF012000205DF808FB00BFB2
:100A40004A0011D212F5001211D20DD56FF478734D
:100A5000B3EB62520ED44FEAC12343F0004343EAA2
:100A6000505323FA02F070474FF00000704750EAED
:100A7000013002D14FF0FF3070474FF00000704757
:100A80004FEA4002B2F1FE4F0FD34FF09E03B3EB9B
:100A900012620DD94FEA002343F0004310F0004FDB
:100AA00023FA02F018BF404270474FF00000704731
:100AB00012F1610F01D1420205D110F0004008BFD0
:100AC0006FF0004070474FF00000704700000000DA
:100AD00000210A2200F0F4B900220A2300F050B9E4
:100AE00070B48407034644D0541E002A3FD0CEB2CF
:100AF00002E0002C3BD0144603F8016B13F0030F07
:100B00001D4604F1FF32F4D1032C29D9CAB20F2CAF
:100B100084BF2B46264642EA022242EA024211D90B
:100B2000103E1A605A609A60DA6010330F2EF7D8C0
:100B3000A4F1100304F00F0423F00F031033032C6F
:100B40001D440DD92E462346043B46F8042B032BA7
:100B5000FAD8231F04F0030423F003030433ED1831
:100B60002CB1C9B22C1905F8011BA542FBD170BCF0
:100B7000704705461446C7E700000000000000006B
:100B80000F4B70B41D6810F8013BEC181A466478DE
:100B900004F00304012C11F8014B08BF03F12002FB
:100BA0002E192346767806F00306012E08BF04F1BD
:100BB0002003D21A01D1002BE5D1104670BC70473A
:100BC00000080020000000000000000000000000FD
:100BD000C9B2F0B400294BD083070FD00378002BA3
:100BE00073D0994242D0431C05E013F8012B002A30
:100BF0003BD091423AD09A071846F6D1036841EAB1
:100C00000127A3F1013247EA074722EA030212F063
:100C1000803F1CD17B40A3F1013222EA030313F091
:100C2000803F14D1021D02E014F0803F0FD1104626
:100C300052F8043BA3F1013687EA030426EA0303D2
:100C4000A4F1013513F0803F25EA0404ECD00378C9
:100C5000002B3AD0994209D0431C01E0914205D0C3
:100C6000184613F8012B002AF8D11046F0BC704743
:100C700081070DD00378002BF8D0431C02E00278E6
:100C8000002AF3D013F0030F184603F10103F6D145
:100C90000368A3F1013222EA030313F0803F0AD173
:100CA000021D104652F8041BA1F1013424EA01018F
:100CB00011F0803FF5D00378002BD7D0431C1846A5
:100CC00001330278002AFAD1D0E71846CEE700BFF8
:100CD00041EA000313F0030F034670B425D0AAB114
:100CE0000C78013A03F8014B4CB11C4672B111F873
:100CF000015F013A04F8015B2346002DF6D12AB1C9
:100D00009A18002103F8011B9342FBD170BC704775
:100D10000E4651F8044BA4F1013525EA040515F0FF
:100D2000803F05D1043A43F8044B032AF0D8D6E7B4
:100D30003146D4E700000000000000000000000081
:100D4000F0B40478CCB10F78064697B10546BC42A2
:100D50000AD00A4601E09C4206D012F8013F002B5F
:100D6000F9D1281AF0BC70476C7801361CB13546B1
:100D7000EDE73846F6E7301AF4E72046F2E700BF21
:100D80002DE9F04F85B099460B4602914B490390EF
:100D9000D1F800801C4614F8015B08EB05012346DE
:100DA000497801F00801C9B20029F3D12D2D7BD07B
:100DB0002B2D05BF24460B460B4614F8015B39F07A
:100DC000100112D1D9F1010038BF0020302D04D01C
:100DD00058B14FF00A09CB4608E0217801F0DF0155
:100DE000582965D008B14FF00809CB46002B594669
:100DF0000CBF6FF000464FF000468DE80C00304607
:100E0000002700F09BF930468A46594600F068F802
:100E1000BC469DE80C0016E0303DA94525DD844523
:100E200094BF0021012151EAD77729D15545D4BF7C
:100E300000210121844518BF002109BB0BFB0C5C7C
:100E4000012714F8015B08EB0501497801F004065D
:100E5000F6B2002EE0D111F0030106D0012914BF33
:100E6000572137216D1AA945D9DC791C0BD0C3B99C
:100E7000604612B197B9029B136005B0BDE8F08FD0
:100E80004FF0FF37DDE70399002B0CBF6FF00040F8
:100E90004FF0004022230B60002AEED0013C029468
:100EA000E9E7CCF1000CE3E714F8015B012386E7E6
:100EB0004FF010096578CB46023497E70008002010
:100EC00030B440F60804C2F200040D461346014651
:100ED0002A46206830BCFFF753BF00BF0000000067
:100EE0004A1E08BF7047C0F02481884240F2168134
:100EF000114200F01781B0FA80F3B1FA81F2A2EB4F
:100F00000303C3F11F0304A202EB03134FF000021B
:100F10009F4600BFAFF30080B0EBC17F00BF42EB44
:100F2000020228BFA0EBC170B0EB817F00BF42EB93
:100F3000020228BFA0EB8170B0EB417F00BF42EB03
:100F4000020228BFA0EB4170B0EB017F00BF42EB73
:100F5000020228BFA0EB0170B0EBC16F00BF42EBF3
:100F6000020228BFA0EBC160B0EB816F00BF42EB73
:100F7000020228BFA0EB8160B0EB416F00BF42EBE3
:100F8000020228BFA0EB4160B0EB016F00BF42EB53
:100F9000020228BFA0EB0160B0EBC15F00BF42EBD3
:100FA000020228BFA0EBC150B0EB815F00BF42EB53
:100FB000020228BFA0EB8150B0EB415F00BF42EBC3
:100FC000020228BFA0EB4150B0EB015F00BF42EB33
:100FD000020228BFA0EB0150B0EBC14F00BF42EBB3
:100FE000020228BFA0EBC140B0EB814F00BF42EB33
:100FF000020228BFA0EB8140B0EB414F00BF42EBA3
:10100000020228BFA0EB4140B0EB014F00BF42EB12
:10101000020228BFA0EB0140B0EBC13F00BF42EB92
:10102000020228BFA0EBC130B0EB813F00BF42EB12
:10103000020228BFA0EB8130B0EB413F00BF42EB82
:10104000020228BFA0EB4130B0EB013F00BF42EBF2
:10105000020228BFA0EB0130B0EBC12F00BF42EB72
:10106000020228BFA0EBC120B0EB812F00BF42EBF2
:10107000020228BFA0EB8120B0EB412F00BF42EB62
:10108000020228BFA0EB4120B0EB012F00BF42EBD2
:10109000020228BFA0EB0120B0EBC11F00BF42EB52
:1010A000020228BFA0EBC110B0EB811F00BF42EBD2
:1010B000020228BFA0EB8110B0EB411F00BF42EB42
:1010C000020228BFA0EB4110B0EB011F00BF42EBB2
:1010D000020228BFA0EB0110B0EBC10F00BF42EB32
:1010E000020228BFA0EBC100B0EB810F00BF42EBB2
:1010F000020228BFA0EB8100B0EB410F00BF42EB22
:10110000020228BFA0EB4100B0EB010F00BF42EB91
:10111000020228BFA0EB0100104670470CBF01205F
:1011200000207047B1FA81F2C2F11F0220FA02F0EA
:10113000704708B14FF0FF3000F012B80029F8D026
:101140002DE90340FFF7CCFEBDE8064002FB00F3AB
:10115000A1EB0301704700BF000000000000000089
:10116000704700BF00000000000000000000000009
:10117000704700BFAFF30080AFF30080AFF3008093
:10118000FEE700BFAFF30080AFF30080AFF3008055
:1011900072B6374880F30988022383F31488BFF3BB
:1011A0006F8F344A344B9A420BD2D143C91821F085
:1011B0000301131F89184FF0553243F8042F8B4257
:1011C000FBD12E4A82420CD22D49131DC91A21F09F
:1011D0000301131F89184FF0553243F8042F8B4237
:1011E000FBD102F0F5FE2749274B99420BD2C843A9
:1011F000C01820F00300254C043000231A595A501F
:1012000004338342FAD1224A224B9A420AD2D14372
:10121000C91821F00301131F8918002243F8042F75
:101220008B42FBD1FFF7A4FF1B4D1C4B9D420BD201
:10123000EE43F618B608043D0136002455F8043F85
:1012400001349847B442F9D1FEF772FF144D154BA3
:101250009D420BD2EE43F618B608043D0136002439
:1012600055F8043F01349847B442F9D1FFF788FF9D
:1012700000080020000000200004002000040020DE
:101280000308002000080020700F0020089E0008BE
:10129000700F002088310020300100083001000864
:1012A0003001000830010008AFF30080AFF3008088
:1012B000FEE700BFAFF30080AFF30080AFF3008024
:1012C00072B6FEE7AFF30080AFF30080AFF30080AB
:1012D00000F0A6FA00DF00BFAFF30080AFF300809C
:1012E000EFF30983203383F30988002383F3118804
:1012F000704700BFAFF30080AFF30080AFF3008012
:1013000008B54FF440724FF46D43CEF20003C0F2C3
:10131000FA520021996007201021DA6000F0B0F83D
:101320000A20202100F0ACF80B208021BDE8084005
:1013300000F0A6B8AFF30080AFF30080AFF30080F9
:10134000202383F311884FF46D43CEF200035B68D2
:1013500013F4006319D0EFF30983A3F1200282F3A1
:10136000098810494FF080708A6943F8040CD07FD7
:1013700009689268896858B1914294BF002201229D
:1013800062B1094A43F8082C704783F3118870470B
:10139000914234BF00220122002AF2D1034A43F8CD
:1013A000082C704788100020D1120008D4120008C1
:1013B00008B5202383F3118800F0C2F8002383F3DB
:1013C0001188BDE80840FFF7BBBF00BFAFF3008046
:1013D0002DE9F04FC1F80CD0D0F80CD0BDE8F08F5B
:1013E000002383F311882846A04700F0E9FA7047EC
:1013F00000F0030370B4DB00FF2505FA03F501FAE2
:1014000003F1012200F01F0302FA03F284084FF4F3
:101410006143CEF20003C03453F82460400926EA49
:1014200005050D4300F1600643F8245043F82620DB
:1014300043F8202070BC7047AFF30080AFF300800A
:1014400010B400F01F03012404FA03F400F00302B7
:10145000FF23D20003FA02F241094FF46143CEF2B6
:1014600000032031800843F82140C03053F8201099
:1014700021EA020243F8202010BC7047AFF300803D
:1014800000F00303DB00FF2202FA03F201FA03F18A
:1014900080084FF46D43CEF20003063010B453F8C9
:1014A000204024EA02020A4343F8202010BC70477F
:1014B000024B034A9B699A61FEE700BF8810002037
:1014C00030900008AFF30080AFF30080AFF30080EE
:1014D00000B583B0FFF714FF00F0DAF800F060F811
:1014E00000F0AEFD00F0F4FD40F670704021C2F255
:1014F000000000F0A5F941F28801C2F20001886104
:1015000001220277002383F3118862B649F240007A
:101510008969C0F600008861009340F6B87041F216
:10152000B143C021C0F60003C2F2000000F0E8F9A8
:1015300003B000BDAFF30080AFF30080AFF30080D5
:1015400038B5134B9B69DA7F0AB1013ADA771A6A28
:10155000104C01321A62E36822680133A242E36050
:1015600014D09568013D956085B91368D1685C60B9
:101570002360D560002383F31188106988472023F6
:1015800083F3118822689368002BEED038BD00BF2A
:101590008810002078100020AFF30080AFF30080A7
:1015A00041F27803C2F200034FF0FF329A6000224A
:1015B0005B601B60DA607047AFF30080AFF30080C0
:1015C00070B40D4E03613468C260A568A94204D9A5
:1015D0002468491BA5688D42FAD363688160B442D0
:1015E00043600460186018BFA36860601CBFC1EB53
:1015F0000301A16070BC704778100020AFF3008039
:101600000368074A93421FBF996882688A189A60E4
:101610004268002113600368C1605A60704700BFD0
:1016200078100020AFF30080AFF30080AFF30080AC
:10163000202383F31188037F0D2B11D8DFE803F0FB
:1016400020101007100B101010101010100B436A10
:101650009A6801329A6090E80C001A600268536040
:101660004FF0FF32426281680022074B02771B680D
:101670009A688A42FBD25A680360426010605860E0
:10168000002383F31188704788100020AFF3008097
:1016900041F28803C2F2000300225B601B609A6083
:1016A0005B611B61704700BFAFF30080AFF3008048
:1016B00000228168054B02771B689A688A42FBD238
:1016C0005A680360426010605860704788100020BC
:1016D00041F28803C2F2000310B499691A680877CE
:1016E00014201468C87701201077104663601C60CE
:1016F0009A6110BCFFF76CBEAFF30080AFF30080BF
:1017000030B54B1C87B0054611D00B4C0B4AA36972
:1017100001A8FFF755FF2846FFF7DAFF049B13B136
:1017200001A8FFF76DFFA369586A07B030BDFFF746
:10173000CFFF014CF7E700BF8810002031160008EA
:10174000F0B4144F0446BE698568B0680023854232
:1017500061620CD823773B461B689A689542FBD997
:101760005A682360626014605C60F0BC7047337735
:101770003B461B689A689042FBD95A683360726096
:1017800020465E603146012316602377BC61F0BCC1
:10179000FFF71EBE88100020AFF30080AFF300807B
:1017A0000E4B30B41868996902688C6853601A60EF
:1017B000986114230125CB77002305770B77034627
:1017C00000E01B689A68A242FBD25A680B604A602C
:1017D0001160596030BCFFF7FBBD00BF88100020CE
:1017E0000D4B30B41868996902688C685360012504
:1017F0001A609861002305770B77034600E01B68A9
:101800009A68A242FBD85A680B604A60116059601E
:1018100030BCFFF7DDBD00BF88100020AFF30080B3
:10182000034B9B69DB7F0BB1FFF7DABFFFF7B8BF54
:1018300088100020AFF30080AFF30080AFF300808A
:10184000F0B441F28804C2F2000465690022046128
:1018500000F12C06816000F1280745614FF0020C71
:10186000606101641424012180F81CC04277C477B0
:10187000C263826302628177826128618762066344
:10188000C662F0BC704700BFAFF30080AFF30080CA
:101890002DE9F003243941F28805C2F2000547180A
:1018A000D5F814C0C7604350069B00267B6041F208
:1018B000E133C0F600033B62022303771423904612
:1018C00000F1280900F12C02C37701230561C0F85B
:1018D0000880C0F814C0044668614677C0F84080AC
:1018E000C6638663066283778661CCF81000C0F811
:1018F00028900263C262BDE8F0037047AFF3008036
:1019000010B51C4682B0202383F311882346049C23
:101910000094FFF7BDFF00210446FFF711FF0023ED
:1019200083F31188204602B010BD00BFAFF30080E2
:1019300008B50146202383F311880620FFF7E0FE57
:10194000002383F3118808BDAFF30080AFF300805C
:1019500008B5202383F31188054BD968411A02D0BA
:101960000620FFF7CDFE002383F3118808BD00BFDA
:1019700078100020AFF30080AFF30080AFF3008059
:1019800038B50E4B9C69254655F8283F6062AB423E
:1019900007D01A681846A262FFF78AFEA36AAB4214
:1019A000F7D1637F9B0704D1636922691A612269B9
:1019B00053610E20BDE83840FFF78ABE8810002032
:1019C000202383F31188FFF7DBBF00BFAFF3008054
:1019D00038B50446202383F31188037F0E2B07D0EC
:1019E000084B826A9B6907201A60A362FFF770FEAA
:1019F000656A002383F31188204600F009F8284621
:101A000038BD00BF88100020AFF30080AFF3008026
:101A10000146202383F31188827F0023013AD2B24A
:101A2000827783F3118812B9037F0E2B00D07047A1
:101A3000437F03F00303012B09D0022BF7D1436945
:101A40000269406C1A610A69536100F001BC436984
:101A500002691A610269536100F092BBAFF3008022
:101A6000F0B583B00D4617461E4600F041FB044614
:101A700090B1202383F31188089C334629463A46C7
:101A80000094FFF705FF0123437700210446FFF789
:101A900057FE002383F31188204603B0F0BD00BF3A
:101AA000202383F3118841F28803C2F200031869EE
:101AB0000023827F0132827783F31188704700BF51
:101AC00010B5202383F31188074B04699C4209D089
:101AD000A37F0133A377002383F31188FFF798FFD7
:101AE000204610BD0024F6E788100020AFF30080E8
:101AF0000023406000608360704700BFAFF3008048
:101B0000F8B52F4A836805469469002B51D0A16827
:101B10009A68914206D91A7F9960042A31D0052A21
:101B20001CD092B12B461B689D4203D09968A268D5
:101B30009142F8D25A6804202360626014605C60AD
:101B40006562BDE8F840FFF7C3BD93E80600116089
:101B500018461B685A60FFF7ABFDE3E758681A6840
:101B60005E6A02601F68324678601268964202D050
:101B700090688842F9D251681A6059600B605360CE
:101B8000D0E758681A685E6A02601F68324678605B
:101B90001268964212D090688842F9D251681A6051
:101BA00059600B605360B368A1689A688A42B2D3E7
:101BB000B8E7E36B8460C360E063F8BD3246EDE7ED
:101BC00088100020AFF30080AFF30080AFF30080F7
:101BD00008B5202383F31188FFF792FF002383F3D6
:101BE000118808BDAFF30080AFF30080AFF3008031
:101BF000154A38B59069202383F31188C46B256892
:101C0000E368A542C3631CD0016C4BB11A689A42C9
:101C100003D09268914238BF1146DB68002BF5D1A2
:101C20002B68EA6B8160236028465C600021A56018
:101C3000E260EC63FFF784FD002383F31188204604
:101C400038BD0023A360F7E788100020AFF30080C1
:101C500070B4202383F3118841F28803C2F2000399
:101C60009D69066800240E60234601604D608A600D
:101C7000CC6083F3118870BC704700BFAFF3008065
:101C8000202383F31188024600E01A46136883423A
:101C900003D09942F9D10B681360002383F31188B4
:101CA000704700BFAFF30080AFF30080AFF3008058
:101CB00008B5826B037F1143082B81630BD0092B7E
:101CC00000D008BD436A19408B42FAD1FFF7F0FCFF
:101CD0000023436208BD436A1942F7D108BD00BF23
:101CE00070B504680546A0420E4609D0E3686068F6
:101CF0003343E360A168FFF7DBFF2468A542F5D119
:101D000070BD00BFAFF30080AFF30080AFF3008081
:101D1000104B70B59E690446202383F31188B26B83
:101D200014EA02050ED121B92B4683F31188284607
:101D300070BD08207462FFF7E3FC0028F4DBB26B8F
:101D400004EA020522EA0502B263002383F3118844
:101D5000284670BD88100020AFF30080AFF30080EC
:101D600010B4024659B1084B0D209B695A62546861
:101D700083E814005360236010BCFFF7C1BC4FF030
:101D8000FF3010BC704700BF88100020AFF3008008
:101D900010B4C361019B8A18002440600060846015
:101DA00041618161C1600261036210BC704700BF84
:101DB00038B50446C36800686361A3610023A0428C
:101DC000A3600AD06FF00105036823605C60FFF731
:101DD0006FFC45622068A042F6D138BDAFF30080A9
:101DE000426908B503468069824298681AD001307A
:101DF000986002F8011B19695A618A420BD218686F
:101E000098420DD002681A605360FFF751FC00231E
:101E10004362184608BD1868DA6898425A61F1D1E1
:101E2000002008BD0028E2D06FF0030008BD00BF0D
:101E300070B5202304460E4683F31188C36903B1AD
:101E40009847A568204631463DB9FFF789FF00282D
:101E5000F7DA2B4683F3118870BDA369013DA560B5
:101E600013F8010B2269A361934224BFE368A361C5
:101E7000002383F3118870BDAFF30080AFF30080BF
:101E80002DE9F0471E460446C769202383F31188D5
:101E90004FF0000801F1010901EB020A0FB12046E1
:101EA000B847A568204631464DB9FFF759FF0028CD
:101EB000F7D02B4683F311884046BDE8F087A3692D
:101EC000013DA56013F8012B09F8012C2269A361DB
:101ED000934224BFE368A361002383F31188D145B3
:101EE00008F10108E8D0202383F3118809F10109E2
:101EF000D4E700BFAFF30080AFF30080AFF3008002
:101F000010B4C361019B8C18406000608260416125
:101F10008161C1600461036210BC7047AFF300804F
:101F2000F8B504460F461646202383F31188A568AA
:101F3000204631463DB9FFF713FF0028F7DA2B465C
:101F400083F31188F8BD6369013DA56003F8017B47
:101F500022696361934224BFE3686361E3690BB163
:101F600020469847002383F311881846F8BD00BF28
:101F70004169826910B591420346816816D00131EA
:101F8000996012F8014B19699A618A420BD218685C
:101F9000984206D002681A605360FFF789FB00235D
:101FA0004362204610BDDA689A61F0E70029E6D066
:101FB0006FF0020010BD00BFAFF30080AFF30080F0
:101FC0002DE9F0479A46044688461646D0F81C90FC
:101FD000202383F311880027A56820466B1EEDB1EE
:101FE000A36018F8013B656905F8013B2369656149
:101FF0009D4224BFE3686361B9F1000F00D0C84778
:10200000002383F311880137013E10D0202383F38E
:102010001188A56820466B1E002DE1D1204651464F
:10202000FFF79EFE0028D7D02B4683F31188384651
:10203000BDE8F087AFF30080AFF30080AFF300801E
:1020400040F20001084841F2A80241F2A403C2F2A2
:102050000101C2F2000220F00700C2F2000321F0E9
:1020600007011060196070478F310020AFF30080C6
:10207000202383F31188094B09491A68096807303E
:1020800020F00700891A88429ABF101818600022B1
:10209000002383F311881046704700BFA81000206A
:1020A000A4100020AFF30080AFF30080AFF30080F6
:1020B00041F2A40241F2A803C2F20002C2F20003FC
:1020C00010681B68C01A7047AFF30080AFF3008040
:1020D00041F2B003C2F2000342F271010022C0F6E5
:1020E000000103F1100019609A60DA60FFF700BD8B
:1020F000F8B51F4E0731002818BF064606F110003C
:1021000021F0070506F10804FFF762FD00E01C4618
:102110002368E3B15A689542F9D805F10801914264
:1021200012D84FF6F870CFF6FF70401B821818686F
:102130005F1858507A6027605D601C4644F8086B51
:10214000FFF756FD2046F8BD1A682260F5E7FFF755
:102150004FFD33684BB105F10800984728B100F1F5
:102160000804066045602046F8BD0024EAE700BF89
:10217000B0100020AFF30080AFF30080AFF3008019
:1021800070B5064650F8080CA6F1080400F10805E1
:102190001030FFF71DFD2B46AB421A6801D0A34259
:1021A00002D21AB1944201D31346F5E756F8041C43
:1021B00046F8082C1C6001F1080256F8085CA018CB
:1021C000A84209D05A6802F1080159188C4211D06E
:1021D000BDE87040FFF70CBD4068A25809180831EF
:1021E00046F8041C46F8082C5A6802F108015918F0
:1021F0008C42EDD156F8040C56F8081C121808321F
:1022000083E80600E4E700BFAFF30080AFF300808F
:1022100038B50E4C0D46002818BF044604F11000D6
:10222000FFF7D6FCA3686BB10022144658681B6800
:1022300012180134002BF9D105B12A60FFF7D8FC40
:10224000204638BD1A461C46F6E700BFB0100020F5
:10225000202383F31188026800230A60016083F35E
:1022600011887047AFF30080AFF30080AFF30080B8
:1022700008B500F0E5FB00F00BFA49F24010C0F69B
:10228000000000F0A5FF00F013F800F051F800F096
:102290007FF800F0B5F800F05BF900F0B9F9BDE89F
:1022A000084001F09DBE00BFAFF30080AFF3008097
:1022B00000F0E6BCAFF30080AFF30080AFF3008026
:1022C00000230122027043608360C36003614361A5
:1022D0001830FFF70DBC00BFAFF30080AFF30080F4
:1022E00010B52023044683F31188416000F008FDF7
:1022F00002232370002383F3118810BDAFF3008005
:1023000038B51D460446202383F311880323037048
:102310008260C560016100F01BFD002383F311881A
:1023200038BD00BFAFF30080AFF30080AFF3008093
:1023300000F0B6BEAFF30080AFF30080AFF30080D3
:102340000123037000234360704700BFAFF3008098
:1023500010B52023044683F31188416000F018FF74
:1023600002232370002383F3118810BDAFF3008094
:1023700008B5202383F3118800F09AFE002383F32D
:10238000118808BDAFF30080AFF30080AFF3008089
:1023900001F0E6BBAFF30080AFF30080AFF3008045
:1023A0000123037000234360704700BFAFF3008038
:1023B00010B52023044683F31188416001F0F8FB37
:1023C00002232370002383F3118810BDAFF3008034
:1023D0000423037001F054BCAFF30080AFF300801E
:1023E00008B5202383F31188FFF7F2FF002383F35E
:1023F000118808BDAFF30080AFF30080AFF3008019
:1024000001F00EB9AFF30080AFF30080AFF30080AE
:1024100001230370002343600C30FFF769BB00BF4A
:1024200010B52023044683F31188416001F010F9B0
:1024300002232370002383F3118810BDAFF30080C3
:1024400010B52023044683F3118801F0C1F901235C
:102450002370002383F3118810BD00BFAFF3008009
:1024600080687047AFF30080AFF30080AFF3008067
:1024700070B51E4684B00446202383F311880023E0
:10248000089D8360032303700095099D33460195E1
:102490000A9D029501F0C4F9431C06D00223237063
:1024A000002383F3118804B070BD05232370F7E780
:1024B0000C30FFF78DBB00BFAFF30080AFF300809F
:1024C000FFF796BBAFF30080AFF30080AFF300805F
:1024D0000C30FFF7D5BC00BFAFF30080AFF3008036
:1024E0000C304FF0FF33FFF7CBBC00BFAFF30080E1
:1024F0003030FFF765BD00BFAFF30080AFF3008061
:1025000030304FF0FF33FFF75BBD00BFAFF300800B
:102510000C30FFF78DBC00BFAFF30080AFF300803D
:102520000C304FF0FF31FFF783BC00BFAFF30080EA
:102530003030FFF7F5BC00BFAFF30080AFF3008091
:1025400030304FF0FF32FFF7EBBC00BFAFF300803D
:1025500001F096BCAFF30080AFF30080AFF30080D2
:1025600070B50B4649F260010546C0F6000104460D
:1025700045F8041B82B065600125164604F154013C
:102580004022257200F10C000094FFF701FC00943A
:1025900004F1300004F1940140223346FFF7B0FC0F
:1025A00002B070BDAFF30080AFF30080AFF30080E6
:1025B00010B52023044683F3118801F099FC02230F
:1025C0002372002383F3118810BD00BFAFF3008096
:1025D00038B5436904460D463BB104F10C00294669
:1025E000FFF7FEFB00280BDB38BD04300421FFF7AA
:1025F00077FB04F10C002946FFF7F2FB0028F3DA21
:10260000201D8021BDE83840FFF76ABBAFF3008092
:1026100001F0C6B9AFF30080AFF30080AFF30080E4
:10262000002301220270436083600C30FFF760BA20
:1026300010B52023044683F31188416001F0D8F9D6
:1026400002232370002383F3118810BDAFF30080B1
:102650004FF48053CEF200035B688360704700BF85
:102660004FF48053CEF20003084982685B68096822
:102670009B1AC2685B1A9342836004D80269934232
:1026800038BF03617047C360704700BFD01000209F
:1026900010B541F2D00486B00022C2F200042260DC
:1026A00004924FF0FF3205924FF4805342F2516290
:1026B000C0F60002CEF200035B68019242F2616252
:1026C000C0F6000201A803930292FFF7C9FF039B23
:1026D000236006B010BD00BFAFF30080AFF30080F1
:1026E00008B50023C4F2020306481968026801F025
:1026F0000F0159600AB140689047BDE80840FEF7F5
:102700001FBE00BFD4100020AFF30080AFF30080E5
:102710000023C4F2020319680648C1F3031182685A
:1027200010B50C015C600AB1C0689047BDE810406C
:10273000FEF706BED4100020AFF30080AFF3008098
:102740000023C4F2020319680648C1F30321026999
:1027500010B50C025C600AB140699047BDE81040BA
:10276000FEF7EEBDD4100020AFF30080AFF3008081
:102770000023C4F2020319680648C1F303318269D9
:1027800010B50C035C600AB1C0699047BDE8104009
:10279000FEF7D6BDD4100020AFF30080AFF3008069
:1027A0000023C4F2020319680648C1F30341026A18
:1027B00010B50C045C600AB1406A9047BDE8104057
:1027C000FEF7BEBDD4100020AFF30080AFF3008051
:1027D0000023C4F2020319680648C1F30351826A58
:1027E00010B50C055C600AB1C06A9047BDE81040A6
:1027F000FEF7A6BDD4100020AFF30080AFF3008039
:102800000023C4F2020319680648C1F30361026B96
:1028100010B50C065C600AB1406B9047BDE81040F3
:10282000FEF78EBDD4100020AFF30080AFF3008020
:1028300008B54FF48063C4F2020306481968826B3E
:1028400001F00F0159600AB1C06B9047BDE8084024
:10285000FEF776BDD4100020AFF30080AFF3008008
:102860004FF48063C4F2020319680748C1F30311EF
:10287000026C10B50C015C600AB1406C9047BDE879
:102880001040FEF75DBD00BFD4100020AFF3008004
:102890004FF48063C4F2020319680748C1F30321AF
:1028A000826C10B50C025C600AB1C06C9047BDE848
:1028B0001040FEF745BD00BFD4100020AFF30080EC
:1028C0004FF48063C4F20203196810B5C1F30331F9
:1028D00031B10D480C03026D5C600AB1406D904748
:1028E0004FF48063C4F202031968C1F3034131B1AC
:1028F00005480C04826D5C600AB1C06D9047BDE86C
:102900001040FEF71DBD00BFD4100020AFF30080C3
:102910000D4930B400230D4D0D4C0B601A4619467D
:10292000E8580C330160A1500832902BF8D10021F7
:102930004FF480634FF0FF32C4F20201C4F202038D
:102940004A605A6030BC7047341100208090000803
:10295000D4100020AFF30080AFF30080AFF300800D
:10296000F8B5447A4FF0010C0CFA04F61E4D2F68AE
:102970003E4234D1DFF874C03E430CEBC4077B60A9
:1029800073061CBF4FF48053C4F202032E604CF850
:10299000342018BF5C6945681CBF44F001045C61C9
:1029A00016F4786F1FBF4FF48053C4F202035C69C2
:1029B00044F0020418BF5C6103680F271C6824F010
:1029C0000F041C60067A002407FA06F62E601C60CD
:1029D0003AB1807A0901FEF70BFD2046F8BD60464A
:1029E000F8BD1046F8BD00BF34110020D4100020FF
:1029F00010B50446807AFEF723FD637A012202FABD
:102A000003F30E4A116821EA030313605A0601BF5B
:102A10004FF48052C4F20202516921F0010108BF53
:102A2000516113F4786F01BF4FF48053C4F2020375
:102A30005A6922F0020208BF5A6110BD3411002009
:102A40004FF4805370B4C4F2020300214FF0FF35FD
:102A50004EF2100241F63F141869CEF200021D61D9
:102A6000C0F201041961DE684EF6F050DD60D960F5
:102A70005460916007211160CEF20000C2684FF4EB
:102A8000805142F08072C260CEF2000108684FF4BB
:102A9000E04240F001000860D969C4F2000241F050
:102AA0008051D961D96941F00061D961136843F45B
:102AB0008073136070BCFFF72BBF00BFAFF30080C3
:102AC0004FF48053C4F202031A68194642F001021F
:102AD0001A600A684FF480539207C4F20203F8D5D3
:102AE0001A68194602F0F9021A6000225A604A6810
:102AF0004FF4805312F00C0FC4F20203F7D11A689E
:102B0000194642F480321A600A684FF480539003E9
:102B1000C4F20203F8D55A68194642F4E8125A6022
:102B20001A6842F080721A600A684FF4805392016A
:102B3000C4F20203F8D54FF44441C0F21D014FF432
:102B400000525960C4F202021221116059681A46FB
:102B500041F002015960536803F00C03082BFAD1CD
:102B6000704700BFAFF30080AFF30080AFF3008089
:102B7000F8B50B07044629D5C36A01691A685D6870
:102B8000166826F00F0616601B7A0F2606FA03F663
:102B9000826A8B6800212E6091602BB10522027041
:102BA00098472378052B59D000222261202383F3F4
:102BB0001188636933B162614FF0FF3218465A627F
:102BC000FEF776FD002383F31188F8BD8A072CD524
:102BD00003691D78002D32D1C26A0F21D2F800C0DE
:102BE0005768DCF800605B6826F00F06CCF80060E0
:102BF000127A01FA02F2816A3A608D60002B30D0BD
:102C0000042202708168C26898472378042B2FD071
:102C1000202383F311886369002BD3D000226261E3
:102C200018465A62FEF744FDCCE74B0706D5036908
:102C30005B681BB1C268816852089847F8BD5D683F
:102C4000002DFBD0C268012A0FD95988520801FB18
:102C500002F1836803EB4101A847F8BD022323700A
:102C6000A2E7022202700361D2E78168A847F8BD9B
:102C7000022323702561CBE7AFF30080AFF3008020
:102C800010B51C4C2046FFF71BFB42F28A534FF451
:102C900080522363C4F20202906917494FF4105323
:102CA000C4F2010340F40070E162A362906100226B
:102CB0005A6001229A60092219469A608A684FF484
:102CC00010531207C4F20103F8D405229A60194682
:102CD0008B684FF4105213F00403C4F20102F7D1D1
:102CE0004FF480519360C4F202018B6923F40073A6
:102CF0008B6110BD3811002080900008AFF3008078
:102D0000037810B5012B044600D010BD0E4B98423D
:102D100004D0A36A00225A609A6010BD05210B4AB4
:102D20002346C06AFFF71CFEE36A42F24C42196870
:102D3000C4F201024FF480538A60C4F202039A691C
:102D400042F400729A61E4E738110020712B000808
:102D50000369F0B41978026B00292BD1C1685E8831
:102D6000C46A06FB01F685682168DC68CD604E60A8
:102D70000A600D68826A186945F0010510F4841F25
:102D80000D6044F4807414BF40F4807140F481718C
:102D900054605F699E69DD691C6A41F001015B6AEC
:102DA00008439060D7601661D562146353639160E5
:102DB000F0BC7047C168012994BF42F0200242F084
:102DC0002402CCE7AFF30080AFF30080AFF30080C4
:102DD00041F26C10C2F2000008B542684FF4806303
:102DE0000121C4F201035961536800219847BDE8ED
:102DF0000840FEF7A5BA00BFAFF30080AFF3008034
:102E000041F26C10C2F2000008B542684FF48063D2
:102E10000221C4F201035961D36801219847BDE83A
:102E20000840FEF78DBA00BFAFF30080AFF300801B
:102E300041F26C10C2F2000008B542684FF48063A2
:102E40000421C4F201035961536902219847BDE886
:102E50000840FEF775BA00BFAFF30080AFF3008003
:102E600041F26C10C2F2000008B542684FF4806372
:102E70000821C4F201035961D36903219847BDE8D1
:102E80000840FEF75DBA00BFAFF30080AFF30080EB
:102E900041F26C10C2F2000008B542684FF4806342
:102EA0001021C4F201035961536A04219847BDE817
:102EB0000840FEF745BA00BFAFF30080AFF30080D3
:102EC0004FF48063C4F2010310B55C6904F47872B6
:102ED0005A61A30622D460061AD4210612D4E20550
:102EE0000AD4A30504D5104809214368DB6C984730
:102EF000BDE81040FEF724BA0B48082143685B6C1C
:102F00009847EEE7084807214368DB6B9847E6E7F8
:102F10000548062143685B6B9847DEE702480521B8
:102F20004368DB6A9847D6E76C110020AFF3008056
:102F30004FF48063C4F2010310B55C6904F47C4271
:102F400061055A612AD4220522D4E3041AD4A004CC
:102F500012D461040AD4220404D513480F21436813
:102F6000DB6F9847BDE81040FEF7EAB90E480E2126
:102F700043685B6F9847EEE70B480D214368DB6EB3
:102F80009847E6E708480C2143685B6E9847DEE700
:102F900005480B214368DB6D9847D6E702480A21B4
:102FA00043685B6D9847CEE76C110020AFF300805B
:102FB00041F26C10C2F2000008B542684FF4806321
:102FC000C4F201034FF480315961D2F884301021EA
:102FD0009847BDE80840FEF7B3B900BFAFF30080E3
:102FE00041F26C10C2F2000008B542684FF48063F1
:102FF000C4F201034FF400315961D2F88C30112131
:103000009847BDE80840FEF79BB900BFAFF30080CA
:1030100041F26C10C2F2000008B542684FF48063C0
:10302000C4F201034FF480215961D2F89430122187
:103030009847BDE80840FEF783B900BFAFF30080B2
:1030400008B506206021FEF7D3F907206021FEF7BE
:10305000CFF908206021FEF7CBF909206021FEF7A7
:10306000C7F90A206021FEF7C3F917206021FEF797
:10307000BFF928206021FEF7BBF901206021FEF78F
:10308000B7F929206021FEF7B3F92A206021BDE8B5
:103090000840FEF7ADB900BFAFF30080AFF300808A
:1030A00041F26C10C2F20000FFF74AB9AFF30080A2
:1030B0004268012000FA01F070B44FF4806552F8C4
:1030C0003130C4F20105AE68C44313F0010F14BFE0
:1030D0000643264013F0020F4FF48063C4F201034D
:1030E000AE60DD6814BF05432540DD6002EBC1031F
:1030F0005B682BB34FF48063C4F201031D6828435F
:103100001860586804405C600F2917D852F83100E5
:1031100001F003039B000F2202FA03F2C0F3031035
:1031200000FA03F089080023C4F20103023153F8C6
:10313000214024EA0202024343F8212070BC704778
:103140004FF48063C4F201035D6828435860186837
:1031500004401C60D8E700BFAFF30080AFF30080ED
:10316000012303FA01F14FF48063C4F201031868EC
:10317000CA43104018605868104058609868104062
:103180009860D8680240DA6059617047AFF30080F8
:1031900038B503780546012B13D0002404E0013430
:1031A000FFF786FF132C0BD06B68214653F83430A1
:1031B00028465B07F3D40134FFF7D2FF132CF3D179
:1031C00038BDFFF73DFFE8E7AFF30080AFF30080C5
:1031D0004FF48053C4F202039A6930B442F4FE7291
:1031E00042F001029A6102684FF40063C4F20103E5
:1031F000DA6081684FF4406259604168C4F20102AC
:103200001960C1684FF48053D1604169C4F2010371
:10321000516001694FF4A05411608269C4F2010445
:10322000DA60026A4FF4C0515A60C269C4F2010107
:103230001A60436A4FF4E052E360C36AC4F20102C9
:103240006360856A4FF400532560046BC4F2010388
:10325000CC60846B4C60446B0C60C16BD160416C82
:103260005160016C1160826CDA60026D5A60C26C50
:103270001A6030BC704700BFAFF30080AFF300802E
:10328000032AF0B408BF016102D0042A08BF4161DB
:10329000114C0023A75C08261C461A461D46240133
:1032A00012012D011B0111F0800F0CBF42F00F0223
:1032B0003B4311F4004F0CBF45F00F053C43490060
:1032C000013EECD141680D402C43446001680A4046
:1032D00013430360F0BC704710910008AFF3008007
:1032E000026B436B30B4002114684FF400451D801D
:1032F00019809980998223680F2123F00F0323609E
:10330000147AC36A01FA04F450681A6804601468F5
:10331000586824F00F0414601B7A01FA03F101606D
:1033200030BC7047AFF30080AFF30080AFF3008094
:1033300038B50546202383F31188C4694CB1FFF7E3
:10334000CFFF0023EB614FF0FF3320466362FEF7AF
:10335000AFF9002383F3118838BD00BFAFF30080BD
:1033600038B50B070546446B01D5FDF7A9FF2B6B5C
:103370001A685968106820F00F0010601B7A0F223D
:1033800002FA03F30B60A3889BB243F40073A3809B
:1033900038BD00BFAFF30080AFF30080AFF3008013
:1033A0000A0770B50546446B2BD4EA6A20231168DE
:1033B00050680E6826F00F060E60127A0F2101FA8F
:1033C00002F20260A28822F480521204120CA2803F
:1033D000228822F480621204120C2280228892B287
:1033E00042F40072228083F31188EB692BB1002232
:1033F000EA6118465A62FEF75BF9002383F31188ED
:1034000070BDFDF75DFFD0E7AFF30080AFF3008044
:10341000454A70B5546B0821238BA58AC0F203017D
:10342000ADB245EA034323F07F438B426DD011D9FF
:103430008221C0F207018B424ED08421C0F20701E5
:103440008B422CD015F00A0F18BF238BBDE87040BB
:10345000FDF776BF0121C0F203018B4249D0022162
:10346000C0F203018B42EDD1A388D26A23F400732A
:103470001B0412681B0CA380136843F00103136044
:10348000A3889BB243F48053A3805368012BD9D8FF
:10349000238823F480631B041B0C2380D2E7D36AA8
:1034A0001B685E68002E35D1A188202321F40071AD
:1034B0000904090CA180218889B241F4007121809E
:1034C00083F31188D06918B14662D661FEF7F0F82F
:1034D000002383F31188B5E7A388126B23F40073EC
:1034E0001B0412681B0CA380136843F001031360D4
:1034F000A8E7138C1A0A0BD003F0010343F0F00382
:1035000002F006021A4322829CE7138CC3F347039E
:10351000238297E72388118C9BB241F0010143F489
:10352000A0631184238091E774110020AFF3008021
:103530003949F8B5486B0C6B828A266892B202F45E
:103540005F4383F47F4383F0FF0383823768CB6A52
:1035500027F00F073760277A0F2505FA07F7666807
:103560001C68376027685E6827F00F0727601C7AA1
:1035700002F4807305FA04F59BB2356003B10123B0
:1035800002F40074A4B28B6014B143F002038B60A8
:1035900002F48064A4B26CB1848843F0040324F480
:1035A00000742404240C84800488A4B244F40074BD
:1035B00004808B6002F4006080B210B143F0080315
:1035C0008B6002F4804080B210B143F020038B6026
:1035D00002F4805080B210B143F010038B601004ED
:1035E00044BF43F040038B6004D41BB9BDE8F840EE
:1035F000FDF7A6BE202383F31188C86938B16FF0A8
:1036000001034362044B0022DA61FEF751F8002304
:1036100083F31188EAE700BF74110020AFF3008044
:1036200010B541F27414C2F200042046FEF7F0FE19
:10363000064B4FF4A842C4F20002A3F10C01002093
:10364000E0616263E362216310BD00BFC8900008BF
:10365000F8B503789A2282628A22012B04464262DC
:10366000456B6AD02A46E16A236B0868196805F140
:10367000100383608B604FF400432B8000264FF4CF
:1036800010632E80AB809388616823F03F031B0496
:103690001B0C48680F7A9380948848F2A063A4B208
:1036A000C0F2010344F024049842948039DD4FF4C1
:1036B000D453C0F206039842C8BF304618DC022F2C
:1036C00070D0032F01BF00EB80004FF4A24300EB4A
:1036D0008000C0F2252301BF93FBF0F06FEA804029
:1036E0006FEA904080B218BF48F6FF700B23138436
:1036F00090830978138802299BB24DD0032908BF13
:1037000043F00A0301D0012906D013802B889BB215
:1037100043F001032B80F8BD23F00A031B041B0CAC
:10372000F3E74FF4A243C0F22523400093FBF0F0EF
:1037300000052523000D1384DAE7214B984291D12F
:103740004FF48056C4F2020633690A2143F4001391
:103750003361034600201B4A3061E06AFFF700F93D
:10376000194A23460A21206BFFF7FAF8F3691F2054
:1037700043F40013F361A021FDF73AFE2020A021BD
:10378000FDF736FE626AA36A42F4805243F4805326
:103790006262A362626B66E74FF6F771194041F00F
:1037A0000203B2E74FF4A24300EB4000C0F225232E
:1037B00093FBF0F06FEA40406FEA504080B295E72B
:1037C00074110020A133000861330008AFF30080BA
:1037D000037810B5012B04460AD0FFF781FD206B5A
:1037E000FFF706F9E06AFFF703F9094B9C4200D0A6
:1037F00010BD1F20FDF724FE2020FDF721FE4FF411
:103800008053C4F20203DA6922F40012DA61EFE7AE
:1038100074110020AFF30080AFF30080AFF300809D
:103820002DE9F04687B0109D91466A1C06468A46EF
:103830001F46446B05D001A82946334A3346FDF79D
:10384000BFFE002383F31188F16A326B08681268A7
:10385000B360B36A4FEA4A0A716AA6F820A01360FF
:103860000E9BC2F80C9057600160C3600F9B4360D1
:1038700002E0002383F31188228B202302F002024E
:1038800092B222B9228802F4007292B25AB183F342
:1038900011886B1CEDD0049A002AEAD14FF0FF305A
:1038A00007B0BDE8F08683F31188681C1AD0049B2A
:1038B000002BF3D0A388154D9BB243F40073A38073
:1038C0002288AB6992B242F4807222800220F361B6
:1038D000FDF7FEFE049B13B101A8FDF791FEAB6955
:1038E000586ADDE7A388094D9BB243F40073A380B7
:1038F0002288AB6992B242F4807222800220F36186
:10390000FDF7E6FEEBE700BF31330008881000202A
:103910000B0700D47047FDF7D3BC00BFAFF30080A6
:103920000A0770B5044632D4626A236A1068556883
:1039300006680F2126F00F060660107A1A6801FA51
:1039400000F028601568606825F00F0515601D7A85
:103950005A6801FA05F103681160ABB104222270C4
:10396000204698472378042B0ED0202383F3118818
:10397000A3682BB10022A26018465A62FDF798FE98
:10398000002383F3118870BD02232370EDE7FDF758
:1039900097FCC9E7AFF30080AFF30080AFF300807E
:1039A00010B541F2B014C2F2000441F2AC13C2F2FD
:1039B00000034FF6FF7220461A80FEF731FE084BD7
:1039C0004FF4405203F10C01236241F20A03C4F2A6
:1039D0000102A3620E33E2616162E36210BD00BFC7
:1039E0008C900008AFF30080AFF30080AFF300804D
:1039F000037810B5012B044627D0C3696268A06A1A
:103A0000528902F4006189B2B9B1E16A20F47060B0
:103A100021F4706140F4A06041F4A061A062E16211
:103A200042F44172002119801A8007229A801A8874
:103A300092B242F040021A8010BDE16A20F4706038
:103A400021F47061A062E162EAE7114B984209D06B
:103A5000216A626AE3690868116803F10C028260F6
:103A60008A60CBE703460A210A4A006AFEF778FF1C
:103A7000094A2346606A0A21FEF772FF4FF4805319
:103A8000C4F202039A6942F480529A61E0E700BFEF
:103A9000B01100202139000811390008AFF300806F
:103AA000436801211A895B6801FA02F25A61704782
:103AB000436801211A895B6801FA02F21A617047B2
:103AC000C26991811389D907FCD5908980B270476A
:103AD000017808B5C368002204291A6107D10221C0
:103AE00001701A601A61DA6822F0FF02DA60436836
:103AF0005B68984708BD00BFAFF30080AFF300805C
:103B000041F2E01008B5C2F20000FFF7E1FFBDE8A6
:103B10000840FDF715BC00BFAFF30080AFF3008095
:103B200041F2F01008B5C2F20000FFF7D1FFBDE886
:103B30000840FDF705BC00BFAFF30080AFF3008085
:103B400041F2002008B5C2F20000FFF7C1FFBDE856
:103B50000840FDF7F5BB00BFAFF30080AFF3008076
:103B600008B541F2E013C2F200034FF43052C4F240
:103B700001021846DA60FEF713FC41F2F013C2F2BC
:103B8000000318464FF08042DA60FEF709FC41F26C
:103B90000023C2F200034FF44062C4F20002184650
:103BA000DA60BDE80840FEF7FBBB00BFAFF3008062
:103BB000037810B5012B044610D06268A068116824
:103BC000E368B0FBF1F10139107A89B200220824D0
:103BD0001A605C609962D8601A6110BD224B9842ED
:103BE0001DD0224B984232D0214B9842E5D14FF460
:103BF0008053C4F20203DA69322042F00802DA612B
:103C00001A6942F008021A6100221A617021FDF758
:103C1000EFFB4FF42243C0F24A43A360CDE74FF4D9
:103C20008053C4F202039A69192042F400629A6137
:103C3000DA68702142F40062DA600022DA60FDF78F
:103C4000D7FB4FF42243C0F24A43A360B5E74FF4D9
:103C50008053C4F20203DA691C2042F00102DA61E7
:103C60001A6942F00102CEE7E0110020F0110020B5
:103C700000120020AFF30080AFF30080AFF30080AC
:103C8000C3680139D9620022012159615A621A615F
:103C9000DA680A43DA6005221A607047AFF30080E1
:103CA0004FF46053C4F201039A8992B242F0800249
:103CB0009A817047AFF30080AFF30080AFF30080CC
:103CC0004FF48843C4F200039A8992B242F0800212
:103CD0009A817047AFF30080AFF30080AFF30080AC
:103CE0004FF49043C4F200039A8992B242F08002EA
:103CF0009A817047AFF30080AFF30080AFF300808C
:103D00002DE9F041D0F8D4500646B5F80C802C8847
:103D10001FFA88F8A4B204F480739BB2002B53D12D
:103D2000202383F3118823409BB253B3371D0AE04D
:103D3000A9883046C9B2FEF74BFC2C88A4B204F027
:103D400020039BB2EBB12307F2D004F0080104F08A
:103D5000020389B2002914BF802100219BB214F014
:103D6000010F04F00404384618BF41F02001A4B24A
:103D70000BB141F040010CB141F48071FDF7B0FF8F
:103D8000D6E7002383F3118808F080039BB21BB1B0
:103D900004F080039BB233BB04F04004A4B28CB1A6
:103DA000202383F311881021301DFDF799FF002394
:103DB00083F311884FF63F7308EA0303AB814FF694
:103DC000BF732B80BDE8F081202383F311884FF46B
:103DD00000710430FDF784FF002383F311884FF650
:103DE000FF632B809CE7202383F3118806F13000CA
:103DF000FEF7BEF80028A4BF80B2A88003DB002332
:103E000083F31188C8E7301D0821FDF769FF28F00A
:103E1000C00343F04003AB81F1E700BFAFF3008084
:103E200041F2102008B5C2F20000FFF769FFBDE8BB
:103E30000840FDF785BA00BFAFF30080AFF3008004
:103E400041F2E82008B5C2F20000FFF759FFBDE8D3
:103E50000840FDF775BA00BFAFF30080AFF30080F4
:103E600041F2C03008B5C2F20000FFF749FFBDE8DB
:103E70000840FDF765BA00BFAFF30080AFF30080E4
:103E800070B541F21026C2F2000643F6A142304658
:103E90000021C0F6000241F2E825FEF761FBC2F204
:103EA00000054FF4605343F6C142C4F201032846B3
:103EB0000021C0F6000241F2C034C2F20004C6F88C
:103EC000D430FEF74DFB4FF4884343F6E142C4F291
:103ED000000320460021C0F60002C5F8D430FEF7EA
:103EE0003FFB4FF49043C4F20003C4F8D43070BDDC
:103EF00038B5037A304C0546002918BF0C46012B13
:103F00002AD0D5F8D4304FF46052C4F20102934263
:103F100021680BBF4FF422424FF4A242C0F24A4242
:103F2000C0F22522B2FBF1F292B21A81A288E08897
:103F3000218942F4045240F0400041F0010142F076
:103F40002C0292B280B289B2188299829A810022A0
:103F50001A801A889B8838BD184B984212D0184B8B
:103F600098421CD0174B9842CBD14FF48053C4F2E7
:103F70000203DA69272042F48022DA61C021FDF7CA
:103F800037FABEE74FF48053C4F202039A69252042
:103F900042F480429A61C021FDF72AFAB1E74FF45A
:103FA0008053C4F20203DA69262042F40032DA6157
:103FB000C021FDF71DFAA4E730910008101200207F
:103FC000E8120020C0130020AFF30080AFF30080A0
:103FD000FEF776BDAFF30080AFF30080AFF3008053
:103FE0000023C4F201035A6842F01A025A60704773
:103FF000F0B400F10B0C00F10A050C46B1FBF2F62F
:1040000002FB161101F13003392BC8BF01F1370350
:10401000DBB2B4FBF2F42F46314605F80139002C2F
:10402000ECD1C7EB0C013A46411801E012F8013F10
:1040300000F8013B8842F9D1F0BC7047AFF3008033
:104040002DE9F04F89B005AB0DF1150C0293C3EBD0
:104050000C03CDF804C006460C46174603932546CC
:1040600015F8011B59B125290CD033682C46304670
:104070009B682546984715F8011B0029F3D109B024
:10408000BDE8F08F63782D2B18BF4FF0000900F0CA
:10409000EA802E2B18BF302B11BF4FF020086B7811
:1040A0004FF0300801352C46002506E03A780437F9
:1040B00005EB8505237802EB4505A3F13002D2B26A
:1040C0000134092AF4D92A2BF0D000212E2B00F03C
:1040D000B68003F0DF024C2A03D122780AB1013402
:1040E0001346A3F14402342A00F2A280DFE802F072
:1040F00091A0A0A0A091A0A0A0A0A08FA0A0A0A0EF
:10410000A08DA0A080A0A0A0A0A0A0A0A0A0A06022
:1041100091A0A0A0A091A0A0A0A0A08FA0A0A01B53
:10412000A08DA0A08000D7F800A049F2A012C0F690
:104130000002BAF1000F08BF92469AF8003047F625
:10414000FF720437002908BF1146002B00F0A88039
:104150005346514402E08B4500F096805A7803F1B3
:10416000010B5B46002AF6D1CAEB0B0BCBEB050526
:104170004FF0200825EAE575B9F1000F29D0BBF111
:10418000000FC8BF0AEB0B0907DD33681AF8011BE3
:104190009B6830469847CA45F7D1002D3FF45FAF82
:1041A000336830469B6841469847013DF8D156E751
:1041B0003B68DDF80CB08DF8143004374FF0200860
:1041C0000DF1140ACBEB050525EAE575B9F1000FF1
:1041D000D5D16D42002DD2D09AF800102D2947D0AC
:1041E000336830469B68414698470135F8D1C6E7A9
:1041F0001022396805A8FFF7FBFEDDF808C0043778
:104200000DF1140ACCEB000BDCE70A22F1E70822DF
:10421000EFE7396804370029A8BF05A839DB0A226F
:10422000FFF7E6FE029B0DF1140AC3EB000BC9E792
:104230008DF81430DDF80CB00DF1140AC2E72046F9
:10424000002103E03A78043702EB4C0110F8013BFF
:1042500001EB810CA3F13002D2B2092A0446F3D952
:104260002A2BEFD035E7A51CA3784FF0010910E702
:10427000B8F1300FB4D1336830469B6898470AF1E3
:10428000010A0BF1FF3BABE7CAEB0B0B4FF0200829
:1042900098E72D238DF8143049420DF11500BEE743
:1042A0009B464FF020088DE7AFF30080AFF300800E
:1042B000012970B50646144647DD15682949284688
:1042C000FCF75EFC70B9656827492846FCF758FC86
:1042D000002831D028462549FCF752FC0346002827
:1042E00023D0256828462249FCF74AFC58B965685E
:1042F0001D492846FCF744FC70B128461B49FCF7D1
:104300003FFC034600B170BD1A4A1B49304613708A
:10431000BDE8704003F0BCBC164B01223046174983
:104320001A7003F0B5FC6568E7E7154A3046154991
:10433000137003F0ADFCD4E7114B01223046124953
:104340001A7003F0A5FC6568C4E7104903F0A0FCEF
:1043500030460F4903F09CFC0E493046BDE87040E2
:1043600003F096BC3892000840920008549200086E
:1043700068920008390C00208492000870920008AE
:10438000380C00205892000844920008F091000870
:104390001092000820920008AFF30080AFF3008075
:1043A000002908B504DD0E49BDE8084003F070BCE3
:1043B0000C4903F06DFC6420FDF7BAFABFF34F8F90
:1043C0004FF46D42CEF20002D168042301F4E061A3
:1043D000C0F2FA530B43D360BFF34F8FFEE700BF29
:1043E00098920008A8920008AFF30080AFF3008015
:1043F000F0B5002985B0054605DD1B4905B0BDE8CF
:10440000F04003F045BC194903F042FCFDF748FBBE
:10441000174F04461AE003F03BFCA268E368266AE3
:104420000092A27F1349013A0192207F224657F859
:10443000200003960290284603F02AFC2046FDF750
:104440003FFB04461420FDF773FA54B1A3692846D4
:1044500009491A46002BDED10849284603F018FC0A
:10446000DBE705B0F0BD00BFB8920008CC920008B1
:10447000B0910008289300080C93000814930008DA
:1044800030B5002983B0044604DD134903F000FC75
:1044900003B030BD01A90020FDF7BAFE0546FDF7C7
:1044A00007FE0E490246204603F0F2FB2A4620464C
:1044B0000B4903F0EDFB019A20460A4903F0E8FBA3
:1044C000094B0A4A2046D218094B0A49D21A134608
:1044D00003F0DEFBDCE700BF4893000858930008B8
:1044E0007893000890930008089E0000700F002049
:1044F00000080020B0930008AFF30080AFF3008005
:10450000002903DD0449054A03F0C2BB044B0549F9
:10451000DA6803F0BDBB00BFD8930008E49300083D
:1045200078100020EC930008AFF30080AFF3008018
:1045300010B5002982B0044606DD1C491C4A02B0B1
:10454000BDE8104003F0A4BB1A491B4A03F0A0FBCE
:1045500020461A491A4A03F09BFB204619491A4A79
:1045600003F096FB20461949194A03F091FB2046B7
:104570001849194A03F08CFB20461849184A03F0E1
:1045800087FB20461749184A03F082FB204617494B
:10459000174A03F07DFB174B204600931649174A34
:1045A000174B03F075FB02B010BD00BFD893000895
:1045B000F4930008FC930008109400081894000875
:1045C0002C940008389400084C9400085494000877
:1045D000689400087494000888940008A094000867
:1045E000B4940008DC940008F0940008FC940008DF
:1045F000109500083C9500081895000830950008B3
:10460000609B0008AFF30080AFF30080AFF3008041
:1046100038B504460D4698B128600C492046FCF791
:104620008FFB241820462021FCF7D2FA286018B10D
:10463000002300F8013B2860237823B1204638BDD1
:104640000C68002CE9D10024204638BD108F0008EA
:1046500041F29843C2F200031B607047AFF3008041
:1046600000B544F6710383B00090C0F6000300204B
:10467000FDF7F6F903B000BDAFF30080AFF30080A3
:104680002DE9F04FDFF8E08185B0D8F80C30DFF885
:10469000C4910F460193834692460E460C46002570
:1046A000DBF8003058465B680DF10F010122984796
:1046B000002800F0B7802BB2012B32D0022B9DF8DE
:1046C0000F3035D01B2B00F0A38050D8082B00F002
:1046D00085800D2B5DD0042B53D01F2BE0D90AF120
:1046E000FF32BA189442DBD299F8002004F8013B5B
:1046F000002AD5D040F63942C2F200021378002BCE
:1047000040F09280A64208D016F8012B58464E4938
:1047100003F0BEFAB442F7D12646D8F80C30019324
:10472000BEE79DF80F3000255B2BCBD10225B7E704
:10473000412BB4D199F80030002B6DD10AF1FF362E
:10474000BE19B44278D241F29C42C2F200021578FE
:10475000002D74D03D4A234603E012F8015F002D7E
:1047600058D003F8015BB3421C46F6D197E77F2B84
:1047700034D0C92B2DD0212BAFD16420FDF7D8F830
:104780008EE75846324903F083FA012005B0BDE8B0
:10479000F08F304B00221B782270A3B1B44204D0BA
:1047A00058462D49324603F073FA3A78002A48D029
:1047B0002A4B03F8012C17F8012F19460133002A60
:1047C000F7D100230B705846254903F061FA002009
:1047D000DCE74FF4FA70FDF7ABF861E7BC423FF459
:1047E0005FAF99F8003043B9013C264658E716F808
:1047F000012B5846144903F04BFAB442F7D1082272
:10480000584618491346013C03F042FA264647E74A
:10481000012545E71E4643E758460F490B4A03F07A
:1048200037FA8BE70120B1E7D8F80C30019A9B1AD0
:10483000322B3FF667AF70E72646002530E7264665
:104840002EE70249BDE700BF549500089C140020E4
:1048500048950008380C0020D89B00089D140020C3
:10486000B49200084C95000878100020AFF3008047
:104870002DE9F043664B06689B69664A99B0D0F80B
:10488000048065499A61304603F002FA6349304674
:1048900003F0FEF96249634A634B304603F0F8F9CE
:1048A000624B304600936249624A634B03F0F0F971
:1048B000DFF8A4916149304603F0EAF9304608A9CF
:1048C0004022FFF7DDFE044600282FD102A908A8E8
:1048D000FFF79EFE02A90746002002ADFFF798FEF3
:1048E00050B1042C1BD045F8040F02A9002001345C
:1048F000FFF78EFE0028F4D118AA02EB840343F8D8
:10490000540C002FD6D038464D49FCF739F9F8B988
:1049100084B130464B494A4A03F0BAF9CAE73046F7
:10492000494903F0B5F900230793C3E730464749E7
:1049300003F0AEF9202383F3118800214448FDF7EA
:10494000CFF90020FDF71CF8002019B0BDE8F08376
:1049500038464049FCF714F930B93046CCB13949F2
:104960003C4A03F095F9A5E7D9F80000002833D0B8
:10497000394D03E055F8080F00282DD03946FCF7D3
:10498000FFF80028F6D16B683046214603AA984705
:1049900090E7324903F07CF9D9F800202E4C3AB167
:1049A00030462F4903F074F954F8082F002AF7D144
:1049B000B8F1000F0BD0D8F8002042B14446304681
:1049C000274903F065F954F8082F002AF7D130463B
:1049D000244903F05DF96DE7B8F1000F0DD0D8F868
:1049E000000050B1454602E055F8080F28B139469D
:1049F000FCF7C6F80028F7D1C5E730461A493A4611
:104A000003F046F93046194903F042F952E700BF76
:104A100088100020589500086095000868950008E7
:104A20008495000810940008109500083C95000833
:104A30009C95000830950008609B0008B095000820
:104A4000DC950008D8930008C4950008B8950008C4
:104A500098140020E49500083C0C0020EC95000818
:104A600004960008B4920008D89B00080896000835
:104A70002DE9F0434B4B4C499A69DFF848814B4B89
:104A8000916183B0C8F8008003F5F07100221A60CC
:104A90001A7518338B42FAD17820FCF749FF01F0E0
:104AA0003FFC30B96420FCF743FF01F039FC0028DB
:104AB000F8D04FF4FA60FCF73BFF3D4B0BB103F02D
:104AC0009FFF3C4F3C4E1020FCF732FF02F028F8CD
:104AD00000F0800084B2002CF5D102F021F800F043
:104AE000400085B2002D51D1009534484FF42C710F
:104AF0004122334BFCF704FF2C46814602F010F8AC
:104B000000F0C000844205D11020FCF711FF3B7873
:104B1000002BF3D03220FCF70BFF202383F3118806
:104B2000D8F80030434503D026480021FDF7D8F8D7
:104B3000002383F311883220FCF7FAFE4846FCF785
:104B400047FF214C01F0DCF802E01834B4420DD0EC
:104B500054F8140C0028F8D02578002DF5D1FCF776
:104B600037FF44F8145C1834B442F1D13B78002B81
:104B7000A9D03220FCF7DCFE3B78002BA3D03220FA
:104B8000FCF7D6FE3B78002B9DD0F2E700940B4853
:104B90004FF42C7141220D4BFCF7B2FE40248146AC
:104BA000ACE700BF88100020D09600081019002044
:104BB000018A0008701D0020041B0020E014002062
:104BC000318A0008740C002024190020118A000882
:104BD000F8B5104B104A9B6978209A61FCF7A8FE43
:104BE0001020FCF7A5FE00256E1CB6B234B220469C
:104BF00001F076F80746204601F0CAF83946024629
:104C000028B201F0CDFB082C3546EDD101F000FCB7
:104C1000E6E700BF88100020D8960008AFF30080B8
:104C2000164AF0B495690023154C0F46A8611A4640
:104C3000E05803F1180385420DD00132142AF7D150
:104C400000231A46E0580E4E183358B10132142A88
:104C5000F8D1F0BC70470A4B02EB420203EBC202F0
:104C60001775F6E702EB4202D40033190548191D07
:104C7000012235511F75F0BCFCF7EABF88100020F7
:104C800010190020740C0020AFF30080AFF30080F7
:104C90000021FFF7C5BF00BFAFF30080AFF3008076
:104CA0004FF47A7303FB00F044F6D353411EC1F274
:104CB0006203A3FB012399092DE9F04101314FF073
:104CC000FF30FDF725F8214EB16920B94B7F03F085
:104CD0000403DBB2DBB100231D4D1C46EA5803F18F
:104CE00018038A4207D00134142CF7D10020BDE804
:104CF000F041FCF765BE6700154B3A1903EBC203A0
:104D00001B7D33B14B7F03F00403DBB20BB9BDE86D
:104D1000F08107EB04084FEAC80805EB08010D48CD
:104D20000431FCF7ADFF0C4B23B1094B53F80800DD
:104D300003F03EF8B3695B7F03F00403DBB2002BA2
:104D4000D4D03B19DB000022EA50CFE788100020C6
:104D500010190020740C0020B17D0008AFF3008012
:104D600010B582B001F0B4FA01F09AF901F090FEAA
:104D700002F0FEFF27482849FDF71AFC00202549CC
:104D800001F0EEFC0020254B0146254A01F058FDBC
:104D9000244A0020012101F053FD23481E49FDF75C
:104DA00007FC0120204901F0DBFC1C4B0120002105
:104DB0001B4A01F045FD012001461C4A01F040FD5F
:104DC00000F07EFCFDF71CFB19481A4901F0C8FFF2
:104DD000194B0BB103F00CFE002400F0D1FA00F0E7
:104DE00007FD00F02DFE00F043FE00F0E9F84A2236
:104DF0004FF4C071114B00941148FCF781FD0094F1
:104E00004FF4207148220F4B0F48FCF779FD02B098
:104E100010BD00BFE8120020B096000810950008F1
:104E2000F0960008FC960008C01300200C970008BC
:104E30007411002010120020F1890008D14B0008E5
:104E400090170020714A0008F01A0020AFF300808C
:104E500041F2102049F2C061C2F20000C0F6000128
:104E6000FDF7A6BBAFF30080AFF30080AFF3008087
:104E7000202383F311880D4B002209B203E0013295
:104E80000C330C2A0DD0B3F900008842F7D15868D2
:104E90000028F4DB064B02EB420203EB82030130F5
:104EA0009860002383F31188704700BF7C0C0020BA
:104EB000780C0020AFF30080AFF30080AFF30080E8
:104EC0000B2808DC0D4A00EB400080001318997194
:104ED00011B1012909D07047B3F90430012101FA59
:104EE00003F110580322FEF7CBB9B3F90420186878
:104EF00001FA02F10622FEF7C3B900BF780C0020C8
:104F00000B280CDC094B00EB400080001A18B2F9AA
:104F1000042029B1012101FA02F21B581A617047DD
:104F2000012101FA02F21B585A617047780C0020E7
:104F30000B280DDC074B00EB400080001A581B18B3
:104F4000B3F90430906820FA03F000F001007047D4
:104F500000207047780C0020AFF30080AFF3008092
:104F6000F8B5002146000446104DFFF7A9FF33199C
:104F70009B00EF18E85803220D4BB98800F0D0F9D8
:104F8000B7F90430072B05D0341905EB840500234D
:104F9000AB60F8BD032C04BF4FF0FF336B67F3D059
:104FA000092C04BF4FF0FF33EB62EDE7780C0020D3
:104FB000714E0008AFF30080AFF30080AFF30080C4
:104FC00038B5094C04F1900502E00C34AC420AD02B
:104FD0002368002BF9D134F9041C04480C34FDF784
:104FE000C7F9AC42F4D138BD800C00206C11002010
:104FF0000B28DFBF044B00EB400003EB8000806810
:10500000C8BF0020704700BF780C0020AFF30080BD
:105010002DE9F047002800F088800029C8BF464FDE
:1050200040F3878000F1060845464FF0000A0FFA6A
:1050300081F91BE0012925D00A292BD00C294AD05F
:105040000E2969D015F9063C15F8052C03EB43032E
:1050500007EB43035A7099700AF1010A35F8021CF4
:105060000FFA8AF20635914599805CDD15F8041C2B
:105070000029DFD115F9060CFFF722FF15F8041CF3
:105080000129D9D115F9060CFFF71AFF15F8041CF0
:105090000A29D3D14446002603E033B206344B45F7
:1050A00015DA14F8043C01360B2BF6D134F8020C57
:1050B00035F8023C9842F0D114F9062CC0B215F92B
:1050C000061C00F015FB33B206344B45E9DB15F83E
:1050D000041C0C29B4D14446002603E033B2063444
:1050E000994515DD14F8043C01360D2BF6D134F842
:1050F000020C35F8023C9842F0D114F9062CC0B2EB
:1051000015F9061C00F04CFC33B206349945E9DC75
:1051100015F8041C0E2995D115F9060CFFF720FF90
:1051200015F8041C8EE7BDE8F087034F0C213846C4
:1051300078E7BDE8F08700BF080D0020AFF30080DE
:105140000B28DFBF044B00EB400003EB400040782E
:10515000C8BF0020704700BF080D0020AFF30080DB
:105160000B2810B438DC1D4A41000B1802EB430336
:105170005B78013B072B08D8DFE803F0090B0D181B
:1051800023070704164810BC70471648FBE716486B
:10519000F9E71648F7E7081802EB40029078144B3D
:1051A000144A0A2814BF10461846ECE7081802EB08
:1051B00040029078104B0F4A0C2814BF1046184636
:1051C000E1E7081802EB400290780C4B094A0C28E2
:1051D00014BF10461846D6E70020D4E7080D00207B
:1051E000549700084897000828970008209700085F
:1051F0004097000820990008389700083097000869
:105200000B28DFBF044B00EB400003EB400080881D
:10521000C8BF0020704700BF080D0020AFF300801A
:105220000B28DFBF044B00EB400003EB400080780D
:10523000C8BF0020704700BF080D0020AFF30080FA
:1052400038B5002859D0002957DD013989B200F15D
:105250000C0301EB4101841D03EB410525E0062B06
:1052600020D114F8020C14F9061C01F069FD14F8A1
:10527000020C14F8051C01F043FD14F9060C34F976
:10528000022C1E4900F0B4FD14F9060C34F9022C6E
:105290001B4900F0BDFD14F9060C1A4934F9022C23
:1052A00000F0C6FD0634AC4227D014F9060C14F801
:1052B000051C00F03DFD14F9060C14F8041C00F068
:1052C00057FD14F8033C032BC9D114F9060C34F92B
:1052D000022C0D4900F08CFD14F9060C34F9022C57
:1052E0000A4900F095FD14F9060C34F9022C08491E
:1052F000063400F09DFDAC42D7D138BD916C00085A
:10530000C16C0008E16C00082158000841580008F1
:1053100061580008AFF30080AFF30080AFF3008066
:1053200070B4144C072954F8315004EBC10605F051
:10533000F00542EA050244F83120736001D070BCE8
:1053400070474FF4C053C4F20103984202BF22F0E9
:10535000F00242F04002A263F1D04FF48053C4F255
:105360000103984202BF22F0F00242F02002A26341
:10537000E5E700BF500D0020AFF30080AFF30080E1
:1053800041F26C1040F65051C2F20000C2F200012E
:10539000FCF7DEBFAFF30080AFF30080AFF3008017
:1053A00010B4202383F311880E4B196E9A6E8C680B
:1053B0009068B3F96410B3F96C2024FA01F120FA73
:1053C00002F201F0010102F0010291425A6D06D091
:1053D00001325A65002383F3118810BC7047013AEB
:1053E0005A65F7E7741D0020AFF30080AFF300802B
:1053F00010B4202383F311880F4BD96FD3F8842086
:105400008C689068B3F98010B3F9882024FA01F110
:1054100020FA02F201F0010102F0010291421A6F3A
:1054200006D0013A1A67002383F3118810BC704735
:1054300001321A67F7E700BF741D0020AFF3008048
:1054400010B4202383F311880F4BD96FD3F8842035
:105450008C689068B3F98010B3F9882024FA01F1C0
:1054600020FA02F201F0010102F0010291421A6FEA
:1054700006D001321A67002383F3118810BC7047ED
:10548000013A1A67F7E700BF741D0020AFF30080F0
:1054900010B4202383F311880E4BD9685A698C68A5
:1054A0009068B3F91010B3F9182024FA01F120FA2A
:1054B00002F201F0010102F0010291421A6806D0E5
:1054C000013A1A60002383F3118810BC704701323F
:1054D0001A60F7E7741D0020AFF30080AFF300807F
:1054E00010B4202383F311880E4B996A1A6B8C68D1
:1054F0009068B3F92C10B3F9342024FA01F120FAA2
:1055000002F201F0010102F001029142DA6906D0D3
:10551000013ADA61002383F3118810BC704701322D
:10552000DA61F7E7741D0020AFF30080AFF300806D
:1055300010B4202383F311880E4B596CDA6C8C68FD
:105540009068B3F94810B3F9502024FA01F120FA19
:1055500002F201F0010102F0010291429A6B06D0C1
:10556000013A9A63002383F3118810BC704701321B
:105570009A63F7E7741D0020AFF30080AFF300805B
:1055800010B4202383F311880E4B196E9A6E8C6829
:105590009068B3F96410B3F96C2024FA01F120FA91
:1055A00002F201F0010102F0010291425A6D06D0AF
:1055B000013A5A65002383F3118810BC7047013209
:1055C0005A65F7E7741D0020AFF30080AFF3008049
:1055D00010B4202383F311880E4BD9685A698C6864
:1055E0009068B3F91010B3F9182024FA01F120FAE9
:1055F00002F201F0010102F0010291421A6806D0A4
:1056000001321A60002383F3118810BC7047013AFD
:105610001A60F7E7741D0020AFF30080AFF300803D
:1056200010B4202383F311880E4B996A1A6B8C688F
:105630009068B3F92C10B3F9342024FA01F120FA60
:1056400002F201F0010102F001029142DA6906D092
:105650000132DA61002383F3118810BC7047013AEC
:10566000DA61F7E7741D0020AFF30080AFF300802C
:1056700010B4202383F311880E4B596CDA6C8C68BC
:105680009068B3F94810B3F9502024FA01F120FAD8
:1056900002F201F0010102F0010291429A6B06D080
:1056A00001329A63002383F3118810BC7047013ADA
:1056B0009A63F7E7741D0020AFF30080AFF300801A
:1056C00010B40023074C1A46C3EBC3000133DBB20E
:1056D00004EB8001052B0A8144F820204A60F3D1B5
:1056E00010BC7047741D0020AFF30080AFF3008042
:1056F00004282DE9F04704460D46164603D80B2929
:1057000001DC0B2A01DDBDE8F087224AC0EBC003B3
:105710009B00D7184FF00009084642F8039049460D
:10572000C7F80490FFF7CCFBDFF8748005EB450366
:105730009B0008EB030258F803C0B2F804E0164BD4
:1057400060467146032253F82430C7F80CC0A7F80E
:1057500010E0BD72FFF7E4FD30464946FFF7B0FBAD
:1057600006EB46039B0008EB030258F803E095881C
:105770000A4B704653F8243029460322FE72C7F8BC
:1057800014E03D83FFF7CCFD012307F1080A3B81BC
:10579000BDE8F087741D002060970008809700081E
:1057A000780C0020AFF30080AFF30080AFF30080EF
:1057B0000B4BC0EBC00010B503EB8004B4F908300C
:1057C000012B00D010BDB4F910100648FCF7D0FD35
:1057D0000448B4F91810BDE81040FCF7C9BD00BF7B
:1057E000741D00206C110020AFF30080AFF3008027
:1057F00008B50020FFF7DCFF0120FFF7D9FF0220EA
:10580000FFF7D6FF0320FFF7D3FF0420BDE80840D1
:10581000FFF7CEBFAFF30080AFF30080AFF300809F
:1058200083B2042B08D8054BC0EBC00080001A18C7
:1058300018585368C01A704700207047741D002024
:1058400083B2042B07D8044BC0EBC00080001A5869
:105850001818511A41607047741D0020AFF3008082
:105860000428DFBF064BC0EBC00003EB800090F9BB
:105870000A00CCBF4FF6FF7080B200B2704700BF85
:10588000741D0020AFF30080AFF30080AFF3008001
:1058900070B50B4D82B006460024C4EBC40305EB83
:1058A0008302516822460134009155F82330304676
:1058B0000449E4B202F0ECF9052CEED102B070BD5F
:1058C000741D0020A0970008AFF30080AFF30080A4
:1058D00010B4202383F311880E4B0F491A7852011C
:1058E0008B189869B3F91C40806820FA04F0C0074F
:1058F0000BD40A4A0A49D2680220526A08705A80B8
:10590000002383F3118810BC7047044BDB685B6A8B
:105910008B52F5E7881F00208C1F0020001200200A
:105920002C200020AFF30080AFF30080AFF30080A5
:1059300010B5202383F31188134B197891B10129F5
:1059400003D0002383F3118810BD104A1049127848
:105950000024520188188C5249F6404242800322AA
:105960001A70EEE7094A1078094A02EB401292F9E0
:105970000E0001221A70FFF7C3FA064849F64041AB
:10598000FCF726FDDDE700BF2C200020881F00204B
:105990008C1F002000120020AFF30080AFF30080C6
:1059A00004282DE9F04105460C46164603D80B297C
:1059B00001DC0B2A01DDBDE8F08108460121FFF77B
:1059C0007FFA134F04EB44039B00FA181149FB586C
:1059D000928801EB451530460021AC732B61AA82F9
:1059E000FFF76EFA06EB46039B00FA189488FF58FF
:1059F0002146094B38460322EE73AF61AC83FFF7B3
:105A00008FFC032305F10808AB81BDE8F08100BFDE
:105A1000780C00208C1F0020D1580008AFF30080C4
:105A2000054B03EB40139A89D20700D47047034813
:105A3000B3F91C10FCF79CBC8C1F00206C110020DB
:105A400008B50020FFF7ECFF0120FFF7E9FF022077
:105A5000FFF7E6FF0320FFF7E3FF0420BDE808405F
:105A6000FFF7DEBFAFF30080AFF30080AFF300803D
:105A700010B50F4C82B023680BB102B010BD0D48B9
:105A800001E0052BF9D000EB43129289591C02F07A
:105A9000020212B2CBB2002AF3D0002300930648D0
:105AA0004FF4C0714822054BFBF72AFF2060E4E762
:105AB000001E00208C1F0020081E0020015B000833
:105AC00008B50B4B03EB4010B0F90C300830032B3A
:105AD00000D008BD012190F90600FFF711FA054B2F
